:100000000C942A000C9487010C94BE010C94F50109
:100010000C9447000C9447000C9447000C94470044
:100020000C9447000C9447000C9447000C94470034
:100030000C9447000C9447000C9447000C94470024
:100040000C9447000C9447000C9447000C94470014
:100050000C94470011241FBECFE5D8E0DEBFCDBF12
:1000600010E0A0E6B0E0EAEAF3E102C005900D92EC
:10007000A037B107D9F710E0A0E7B0E001C01D92AA
:10008000AE37B107E1F70E94C6090C94D3090C946E
:100090000000DF93CF93CDB7DEB77894CF91DF9197
:1000A0000895DF93CF93CDB7DEB7F894CF91DF916A
:1000B0000895DF93CF9300D0CDB7DEB781E08A8378
:1000C000198219824AC08981282F30E0C901880F1E
:1000D000991F820F931FFC01EF59FF4F40818981C7
:1000E000282F30E0C901880F991F820F931FFC0150
:1000F000EE59FF4F9081842F692F0E942A02898137
:10010000282F30E0C901880F991F820F931FFC012F
:10011000EF59FF4F40818981282F30E0C901880FB6
:10012000991F820F931FFC01ED59FF4F9081842F7F
:10013000692F0E94A5028981282F30E0C901880F0C
:10014000991F820F931FFC01EF59FF4F808161E0DF
:100150000E944C0389818F5F89839091600089811F
:10016000891708F4B0CF1A828A810F900F90CF912F
:10017000DF910895DF93CF9300D00F92CDB7DEB714
:100180008A836B8381E089838A816B810E94A502C7
:10019000898389810F900F900F90CF91DF910895FF
:1001A000DF93CF9300D00F92CDB7DEB78A836B83F6
:1001B00081E089838A816B810E942A0289838981F7
:1001C0000F900F900F90CF91DF910895DF93CF9311
:1001D00000D000D000D0CDB7DEB78A837C836B839C
:1001E00081E089838B819C810097D1F18A81282FBE
:1001F00030E03E832D838D819E8181309105B1F069
:100200002D813E8122303105E1F08D819E81009764
:1002100021F5EAE5F0E080818295869586958370E8
:100220008170EB81FC81808319821CC0EAE5F0E0DB
:100230008081881F8827881FEB81FC818083198239
:1002400011C0EAE5F0E08081829586958770817023
:10025000EB81FC818083198205C082E0898302C022
:1002600083E08983898126960FB6F894DEBF0FBE9E
:10027000CDBFCF91DF910895DF93CF9300D0CDB75D
:10028000DEB78A8381E089838A8161E00E944C0322
:10029000898389810F900F90CF91DF910895DF932B
:1002A000CF9300D000D000D0CDB7DEB78A837C8357
:1002B0006B835E834D8381E089838B819C81009772
:1002C000D1F08A81882F90E02B813C81880F991F83
:1002D000FC01E059FF4F318320838A81882F90E011
:1002E000880F991FFC01EA58FF4F8D819E819183F1
:1002F0008083198202C082E08983898126960FB6A5
:10030000F894DEBF0FBECDBFCF91DF9108951F924D
:100310000F920FB60F9211242F933F934F935F9339
:100320006F937F938F939F93AF93BF93EF93FF93BD
:10033000DF93CF93CDB7DEB78091700090917100BD
:10034000009749F0E0917000F09171008091760083
:10035000909177000995CF91DF91FF91EF91BF9137
:10036000AF919F918F917F916F915F914F913F914D
:100370002F910F900FBE0F901F9018951F920F9204
:100380000FB60F9211242F933F934F935F936F9368
:100390007F938F939F93AF93BF93EF93FF93DF93DD
:1003A000CF93CDB7DEB78091720090917300009724
:1003B00049F0E0917200F091730080917800909183
:1003C00079000995CF91DF91FF91EF91BF91AF91A6
:1003D0009F918F917F916F915F914F913F912F915D
:1003E0000F900FBE0F901F9018951F920F920FB68F
:1003F0000F9211242F933F934F935F936F937F93AB
:100400008F939F93AF93BF93EF93FF93DF93CF931C
:10041000CDB7DEB78091740090917500009739F0E8
:10042000E0917400F091750082E090E00995CF9121
:10043000DF91FF91EF91BF91AF919F918F917F914C
:100440006F915F914F913F912F910F900FBE0F9041
:100450001F901895DF93CF9300D000D00F92CDB7A7
:10046000DEB78A836B8381E089838A81282F30E01D
:100470003D832C838C819D818130910529F12C81D4
:100480003D8122303105D9F18C819D81009709F0A1
:1004900051C08B81813049F4ABE5B0E0EBE5F0E091
:1004A000808180648C93198247C08B81882349F4B2
:1004B000ABE5B0E0EBE5F0E080818F7B8C931982B7
:1004C0003BC082E0898338C08B81813049F4ABE541
:1004D000B0E0EBE5F0E0808180688C9319822CC05D
:1004E0008B81882349F4ABE5B0E0EBE5F0E0808157
:1004F0008F778C93198220C082E089831DC08B8105
:10050000813049F4ABE5B0E0EBE5F0E0808180625A
:100510008C93198211C08B81882349F4ABE5B0E03C
:10052000EBE5F0E080818F7D8C93198205C082E03D
:10053000898302C082E0898389810F900F900F9098
:100540000F900F90CF91DF910895DF93CF9300D05C
:1005500000D00F92CDB7DEB78A836B8381E08983A9
:100560008A81282F30E03D832C838C819D818130CE
:100570009105E9F12C813D812230310509F469C0F2
:100580008C819D81009709F07CC0A5E5B0E0E5E590
:10059000F0E080818C7F8C938B81882311F4198209
:1005A00072C08B81813049F4A5E5B0E0E5E5F0E06B
:1005B000808181608C93198266C08B81823041F486
:1005C000A5E5B0E0E5E5F0E0808182608C935BC05A
:1005D0008B81833049F4A5E5B0E0E5E5F0E080816A
:1005E00083608C9319824FC082E089834CC0A5E55B
:1005F000B0E0E5E5F0E08081837F8C938B818823F8
:1006000011F4198240C08B81813049F4A5E5B0E036
:10061000E5E5F0E0808184608C93198234C08B81A1
:10062000823041F4A5E5B0E0E5E5F0E08081886046
:100630008C9329C08B81833049F4A5E5B0E0E5E5D2
:10064000F0E080818C608C9319821DC082E08983E8
:100650001AC08B81823049F4A4E5B0E0E4E5F0E013
:1006600080818F7B8C9319820EC08B81833059F4EB
:10067000A4E5B0E0E4E5F0E0808180648C93198229
:1006800002C082E0898389810F900F900F900F90B4
:100690000F90CF91DF910895DF93CF9300D000D0DA
:1006A0000F92CDB7DEB78A836B8381E089838A811D
:1006B000282F30E03D832C838C819D8181309105F2
:1006C00029F12C813D8122303105D9F18C819D8128
:1006D000009709F051C08B81813049F4AAE5B0E060
:1006E000EAE5F0E0808180648C93198247C08B81B9
:1006F000882349F4AAE5B0E0EAE5F0E080818F7B49
:100700008C9319823BC082E0898338C08B81813011
:1007100049F4AAE5B0E0EAE5F0E0808180688C93D6
:1007200019822CC08B81882349F4AAE5B0E0EAE560
:10073000F0E080818F778C93198220C082E08983DA
:100740001DC08B81813049F4AAE5B0E0EAE5F0E014
:10075000808180628C93198211C08B81882349F437
:10076000AAE5B0E0EAE5F0E080818F7D8C93198204
:1007700005C082E0898302C082E0898389810F906D
:100780000F900F900F900F90CF91DF910895DF930E
:10079000CF930F92CDB7DEB781E08983198289812B
:1007A0000F90CF91DF910895DF93CF9300D000D0C9
:1007B00000D0CDB7DEB78A836B834C8381E0898319
:1007C0008A81843008F0D0C08B81883008F0CCC09A
:1007D0008C81823008F0C8C08A81282F30E03E83A7
:1007E0002D836D817E816130710509F441C08D8159
:1007F0009E818230910534F42D813E812115310591
:1008000071F0B0C06D817E816230710509F459C00C
:100810008D819E818330910509F47CC0A3C0AAE339
:10082000B0E0EAE3F0E08081482F8B81282F30E0B0
:1008300081E090E002C0880F991F2A95E2F7809529
:1008400084238C93AAE3B0E0EAE3F0E08081482FB0
:100850008C81282F30E08B81882F90E0B90102C075
:10086000660F771F8A95E2F7CB01842B8C937AC0B1
:10087000A7E3B0E0E7E3F0E08081482F8B81282FE9
:1008800030E081E090E002C0880F991F2A95E2F7DE
:10089000809584238C93A7E3B0E0E7E3F0E08081C8
:1008A000482F8C81282F30E08B81882F90E0B90170
:1008B00002C0660F771F8A95E2F7CB01842B8C93D9
:1008C00051C0A4E3B0E0E4E3F0E08081482F8B81E5
:1008D000282F30E081E090E002C0880F991F2A9510
:1008E000E2F7809584238C93A4E3B0E0E4E3F0E0A6
:1008F0008081482F8C81282F30E08B81882F90E0D9
:10090000B90102C0660F771F8A95E2F7CB01842BED
:100910008C9328C0A1E3B0E0E1E3F0E08081482FB0
:100920008B81282F30E081E090E002C0880F991F72
:100930002A95E2F7809584238C93A1E3B0E0E1E36C
:10094000F0E08081482F8C81282F30E08B81882F28
:1009500090E0B90102C0660F771F8A95E2F7CB01DC
:10096000842B8C93198202C082E089838981269628
:100970000FB6F894DEBF0FBECDBFCF91DF910895C3
:10098000DF93CF9300D000D000D0CDB7DEB78A83FD
:100990006B834C8381E089838A81843008F0D0C0E6
:1009A0008B81883008F0CCC08C81823008F0C8C0C0
:1009B0008A81282F30E03E832D836D817E816130D6
:1009C000710509F441C08D819E818230910534F416
:1009D0002D813E812115310571F0B0C06D817E8180
:1009E0006230710509F459C08D819E818330910573
:1009F00009F47CC0A3C0ABE3B0E0EBE3F0E080819E
:100A0000482F8B81282F30E081E090E002C0880FD2
:100A1000991F2A95E2F7809584238C93ABE3B0E08D
:100A2000EBE3F0E08081482F8C81282F30E08B8130
:100A3000882F90E0B90102C0660F771F8A95E2F710
:100A4000CB01842B8C937AC0A8E3B0E0E8E3F0E01C
:100A50008081482F8B81282F30E081E090E002C018
:100A6000880F991F2A95E2F7809584238C93A8E339
:100A7000B0E0E8E3F0E08081482F8C81282F30E05F
:100A80008B81882F90E0B90102C0660F771F8A958D
:100A9000E2F7CB01842B8C9351C0A5E3B0E0E5E3F2
:100AA000F0E08081482F8B81282F30E081E090E0BA
:100AB00002C0880F991F2A95E2F7809584238C93B2
:100AC000A5E3B0E0E5E3F0E08081482F8C81282F9A
:100AD00030E08B81882F90E0B90102C0660F771F4C
:100AE0008A95E2F7CB01842B8C9328C0A2E3B0E077
:100AF000E2E3F0E08081482F8B81282F30E081E015
:100B000090E002C0880F991F2A95E2F78095842310
:100B10008C93A2E3B0E0E2E3F0E08081482F8C8187
:100B2000282F30E08B81882F90E0B90102C0660F3A
:100B3000771F8A95E2F7CB01842B8C93198202C030
:100B400082E08983898126960FB6F894DEBF0FBEB6
:100B5000CDBFCF91DF910895DF93CF9300D000D028
:100B600000D0CDB7DEB78A836B834C8381E0898365
:100B70008A81843008F0DBC08B81883008F0D7C0D0
:100B80008C81823008F0D3C08A81282F30E03E83E8
:100B90002D838D819E818130910509F443C02D8183
:100BA0003E81223031052CF48D819E81009771F0B9
:100BB000BCC02D813E812230310509F45FC08D819A
:100BC0009E818330910509F485C0AFC08C8181304E
:100BD000A1F4ABE3B0E0EBE3F0E08081482F8B8140
:100BE000282F30E081E090E0022E02C0880F991F8C
:100BF0000A94E2F7842B8C9398C0ABE3B0E0EBE36C
:100C0000F0E08081482F8B81282F30E081E090E058
:100C1000022E02C0880F991F0A94E2F78095842360
:100C20008C9383C08C818130A1F4A8E3B0E0E8E329
:100C3000F0E08081482F8B81282F30E081E090E028
:100C4000022E02C0880F991F0A94E2F7842B8C931E
:100C50006CC0A8E3B0E0E8E3F0E08081482F8B812E
:100C6000282F30E081E090E0022E02C0880F991F0B
:100C70000A94E2F7809584238C9357C08C8181304D
:100C8000A1F4A5E3B0E0E5E3F0E08081482F8B819B
:100C9000282F30E081E090E0022E02C0880F991FDB
:100CA0000A94E2F7842B8C9340C0A5E3B0E0E5E31F
:100CB000F0E08081482F8B81282F30E081E090E0A8
:100CC000022E02C0880F991F0A94E2F780958423B0
:100CD0008C932BC08C818130A1F4A2E3B0E0E2E3DD
:100CE000F0E08081482F8B81282F30E081E090E078
:100CF000022E02C0880F991F0A94E2F7842B8C936E
:100D000014C0A2E3B0E0E2E3F0E08081482F8B81E1
:100D1000282F30E081E090E0022E02C0880F991F5A
:100D20000A94E2F7809584238C93198202C082E0B2
:100D30008983898126960FB6F894DEBF0FBECDBF9A
:100D4000CF91DF910895DF93CF9300D000D00F9221
:100D5000CDB7DEB78A836B8381E089838A81843053
:100D600008F073C08B81883008F06FC08A81282F0B
:100D700030E03D832C838C819D818130910549F148
:100D80002C813D81223031052CF48C819D8100978E
:100D900061F05AC02C813D812230310571F18C8186
:100DA0009D8183309105E9F14FC0ABE3B0E0EBE307
:100DB000F0E08081482F8B81282F30E081E090E0A7
:100DC000022E02C0880F991F0A94E2F784278C93A1
:100DD0003BC0A8E3B0E0E8E3F0E08081482F8B81DE
:100DE000282F30E081E090E0022E02C0880F991F8A
:100DF0000A94E2F784278C9327C0A5E3B0E0E5E3EB
:100E0000F0E08081482F8B81282F30E081E090E056
:100E1000022E02C0880F991F0A94E2F784278C9350
:100E200013C0A2E3B0E0E2E3F0E08081482F8B81C1
:100E3000282F30E081E090E0022E02C0880F991F39
:100E40000A94E2F784278C93198289810F900F907E
:100E50000F900F900F90CF91DF910895DF93CF9374
:100E6000CDB7DEB727970FB6F894DEBF0FBECDBF64
:100E70008A836B835D834C8381E089838C819D8130
:100E8000009709F47DC08A81843008F076C08B8198
:100E9000883008F072C08A81282F30E03F832E838B
:100EA0004E815F814130510559F18E819F818230A1
:100EB000910534F42E813F812115310569F05BC025
:100EC0004E815F814230510579F18E819F8183305F
:100ED000910509F43DC04FC0E9E3F0E08081282F7F
:100EE00030E08B81882F90E0A90102C0559547958D
:100EF0008A95E2F7CA018170EC81FD8180833BC055
:100F0000E6E3F0E08081282F30E08B81882F90E0AD
:100F1000A90102C0559547958A95E2F7CA018170EB
:100F2000EC81FD81808327C0E3E3F0E08081282FFE
:100F300030E08B81882F90E0A90102C0559547953C
:100F40008A95E2F7CA018170EC81FD81808313C02C
:100F5000E0E3F0E08081282F30E08B81882F90E063
:100F6000A90102C0559547958A95E2F7CA0181709B
:100F7000EC81FD818083198205C082E0898302C0F3
:100F800083E08983898127960FB6F894DEBF0FBE70
:100F9000CDBFCF91DF910895DF93CF9300D0CDB730
:100FA000DEB781E08A831982198231C08981882F56
:100FB00090E0880F991FFC01E859FF4F208189813B
:100FC000882F90E0880F991FFC01E759FF4F90810F
:100FD000822F692F41E00E94D4038981882F90E0FD
:100FE000880F991FFC01E859FF4F20818981882FC4
:100FF00090E0880F991FFC01E759FF4F9081822FE5
:10100000692F40E00E94AC0589818F5F89839091B0
:1010100067008981891750F21A828A810F900F9098
:10102000CF91DF910895DF93CF9300D0CDB7DEB796
:101030008A8381E08983909167008A818917C8F447
:101040008A81882F90E0880F991FFC01E859FF4F93
:1010500020818A81882F90E0880F991FFC01E75931
:10106000FF4F9081822F692F41E00E94AC05898358
:1010700002C082E0898389810F900F90CF91DF9128
:101080000895DF93CF9300D0CDB7DEB78A8381E098
:101090008983909167008A819817C8F08A81882F88
:1010A00090E0880F991FFC01E859FF4F20818A8149
:1010B000882F90E0880F991FFC01E759FF4F90811E
:1010C000822F692F40E00E94AC05898302C082E034
:1010D000898389810F900F90CF91DF910895DF93DD
:1010E000CF9300D000D0CDB7DEB78C831B821A829D
:1010F0008C818830D8F519828C818150898332C0E7
:101100008981992787FD9095880F991FFC01E859DF
:10111000FF4F50818981992787FD9095880F991FEE
:10112000FC01E759FF4F40818C81282F30E08981F5
:10113000992787FD9095B90102C0759567958A95A5
:10114000E2F7CB01982F9170852F642F492F0E94D1
:10115000AC058A838A81813011F481E08B83898197
:1011600081508983898188235CF602C082E08B8369
:101170008B810F900F900F900F90CF91DF9108957A
:10118000DF93CF9300D0CDB7DEB781E08A83198299
:1011900019821AC08981882F90E0880F991FFC015D
:1011A000E859FF4F20818981882F90E0880F991F8F
:1011B000FC01E759FF4F9081822F692F41E00E9487
:1011C000AC0589818F5F8983909167008981891738
:1011D00008F31A828A810F900F90CF91DF910895C2
:1011E000DF93CF9300D0CDB7DEB781E08A83198239
:1011F00019821AC08981882F90E0880F991FFC01FD
:10120000E859FF4F20818981882F90E0880F991F2E
:10121000FC01E759FF4F9081822F692F40E00E9427
:10122000AC0589818F5F89839091670089818917D7
:1012300008F31A828A810F900F90CF91DF91089561
:10124000DF93CF9300D00F92CDB7DEB79B838A8315
:1012500081E089838A819B81009739F080916700C2
:10126000EA81FB818083198202C083E089838981BE
:101270000F900F900F90CF91DF910895DF93CF9350
:1012800000D0CDB7DEB79A83898390917C0080919E
:101290007D00981728F480917C008F5F80937C00FC
:1012A0000F900F90CF91DF910895DF93CF9300D0EF
:1012B000CDB7DEB79A83898380917C00882329F09B
:1012C00080917C00815080937C000F900F90CF9193
:1012D000DF910895DF93CF9300D0CDB7DEB781E0E3
:1012E00089831A820E94CC07CE0102960E942009AF
:1012F0008A8180937D0010927C000E9459002EE329
:1013000039E04CE750E080E0B9010E944F0125E54B
:1013100039E04CE750E081E0B9010E944F010E94A2
:10132000490089810F900F90CF91DF910895DF934D
:10133000CF930F92CDB7DEB781E089830E94A109D8
:10134000FDCFDF93CF9300D00F92CDB7DEB71B82D6
:101350001A8219820E94F00819820CC089810E94A9
:1013600013088A838A81813011F481E08B8389811B
:101370008F5F898390917C008981891778F38B81B5
:101380000F900F900F90CF91DF910895DF93CF933F
:10139000CDB7DEB70E946A090E94970980E090E00D
:0A13A000CF91DF910895F894FFCF7C
:1013AA00020001030101030300000001000203001F
:00000001FF
